{
  "contractName": "FileStorage",
  "abi": [
    {
      "anonymous": false,
      "inputs": [
        {
          "indexed": false,
          "internalType": "uint256",
          "name": "index",
          "type": "uint256"
        },
        {
          "indexed": false,
          "internalType": "address",
          "name": "uploader",
          "type": "address"
        }
      ],
      "name": "FileDeleted",
      "type": "event"
    },
    {
      "anonymous": false,
      "inputs": [
        {
          "indexed": false,
          "internalType": "string",
          "name": "fileHash",
          "type": "string"
        },
        {
          "indexed": false,
          "internalType": "string",
          "name": "fileName",
          "type": "string"
        },
        {
          "indexed": false,
          "internalType": "address",
          "name": "uploader",
          "type": "address"
        },
        {
          "indexed": false,
          "internalType": "uint256",
          "name": "timestamp",
          "type": "uint256"
        }
      ],
      "name": "FileUploaded",
      "type": "event"
    },
    {
      "constant": true,
      "inputs": [
        {
          "internalType": "uint256",
          "name": "",
          "type": "uint256"
        }
      ],
      "name": "files",
      "outputs": [
        {
          "internalType": "string",
          "name": "fileHash",
          "type": "string"
        },
        {
          "internalType": "string",
          "name": "fileName",
          "type": "string"
        },
        {
          "internalType": "address",
          "name": "uploader",
          "type": "address"
        },
        {
          "internalType": "uint256",
          "name": "timestamp",
          "type": "uint256"
        }
      ],
      "payable": false,
      "stateMutability": "view",
      "type": "function"
    },
    {
      "constant": false,
      "inputs": [
        {
          "internalType": "string",
          "name": "_fileHash",
          "type": "string"
        },
        {
          "internalType": "string",
          "name": "_fileName",
          "type": "string"
        }
      ],
      "name": "uploadFile",
      "outputs": [],
      "payable": false,
      "stateMutability": "nonpayable",
      "type": "function"
    },
    {
      "constant": true,
      "inputs": [
        {
          "internalType": "uint256",
          "name": "_index",
          "type": "uint256"
        }
      ],
      "name": "getFile",
      "outputs": [
        {
          "internalType": "string",
          "name": "",
          "type": "string"
        },
        {
          "internalType": "string",
          "name": "",
          "type": "string"
        },
        {
          "internalType": "address",
          "name": "",
          "type": "address"
        },
        {
          "internalType": "uint256",
          "name": "",
          "type": "uint256"
        }
      ],
      "payable": false,
      "stateMutability": "view",
      "type": "function"
    },
    {
      "constant": true,
      "inputs": [
        {
          "internalType": "address",
          "name": "_uploader",
          "type": "address"
        }
      ],
      "name": "getFileIndexesByUploader",
      "outputs": [
        {
          "internalType": "uint256[]",
          "name": "",
          "type": "uint256[]"
        }
      ],
      "payable": false,
      "stateMutability": "view",
      "type": "function"
    },
    {
      "constant": false,
      "inputs": [
        {
          "internalType": "uint256",
          "name": "_index",
          "type": "uint256"
        }
      ],
      "name": "deleteFile",
      "outputs": [],
      "payable": false,
      "stateMutability": "nonpayable",
      "type": "function"
    },
    {
      "constant": true,
      "inputs": [],
      "name": "getFilesCount",
      "outputs": [
        {
          "internalType": "uint256",
          "name": "",
          "type": "uint256"
        }
      ],
      "payable": false,
      "stateMutability": "view",
      "type": "function"
    }
  ],
  "bytecode": "0x608060405234801561001057600080fd5b50610e65806100206000396000f3fe608060405234801561001057600080fd5b50600436106100625760003560e01c80632bfda3131461006757806378d4947114610182578063996d50bf146101f8578063a3322a1214610327578063c5b4200614610341578063f4c714b41461035e575b600080fd5b6100846004803603602081101561007d57600080fd5b503561037b565b604051808060200180602001856001600160a01b03166001600160a01b03168152602001848152602001838103835287818151815260200191508051906020019080838360005b838110156100e35781810151838201526020016100cb565b50505050905090810190601f1680156101105780820380516001836020036101000a031916815260200191505b50838103825286518152865160209182019188019080838360005b8381101561014357818101518382015260200161012b565b50505050905090810190601f1680156101705780820380516001836020036101000a031916815260200191505b50965050505050505060405180910390f35b6101a86004803603602081101561019857600080fd5b50356001600160a01b03166105b7565b60408051602080825283518183015283519192839290830191858101910280838360005b838110156101e45781810151838201526020016101cc565b505050509050019250505060405180910390f35b6103256004803603604081101561020e57600080fd5b81019060208101813564010000000081111561022957600080fd5b82018360208201111561023b57600080fd5b8035906020019184600183028401116401000000008311171561025d57600080fd5b91908080601f01602080910402602001604051908101604052809392919081815260200183838082843760009201919091525092959493602081019350359150506401000000008111156102b057600080fd5b8201836020820111156102c257600080fd5b803590602001918460018302840111640100000000831117156102e457600080fd5b91908080601f016020809104026020016040519081016040528093929190818152602001838380828437600092019190915250929550610623945050505050565b005b61032f610827565b60408051918252519081900360200190f35b6103256004803603602081101561035757600080fd5b503561082e565b6100846004803603602081101561037457600080fd5b5035610b6b565b60608060008060008054905085106103cf576040805162461bcd60e51b8152602060048201526012602482015271092dcecc2d8d2c840ccd2d8ca40d2dcc8caf60731b604482015290519081900360640190fd5b6103d7610ccf565b600086815481106103e457fe5b600091825260209182902060408051600493909302909101805460026001821615610100026000190190911604601f8101859004909402830160a090810190925260808301848152929390928492909184918401828280156104875780601f1061045c57610100808354040283529160200191610487565b820191906000526020600020905b81548152906001019060200180831161046a57829003601f168201915b50505050508152602001600182018054600181600116156101000203166002900480601f0160208091040260200160405190810160405280929190818152602001828054600181600116156101000203166002900480156105295780601f106104fe57610100808354040283529160200191610529565b820191906000526020600020905b81548152906001019060200180831161050c57829003601f168201915b505050918352505060028201546001600160a01b0390811660208301526003909201546040918201528201519192501633146105965760405162461bcd60e51b8152600401808060200182810382526023815260200180610de06023913960400191505060405180910390fd5b80516020820151604083015160609093015191989097509195509350915050565b6001600160a01b03811660009081526001602090815260409182902080548351818402810184019094528084526060939283018282801561061757602002820191906000526020600020905b815481526020019060010190808311610603575b50505050509050919050565b6040805160808101825283815260208082018490523392820192909252426060820152600080546001810180835591805282518051929460049092027f290decd9548b62a8d60345a988386fc84ba6bc95484008f6362f93160ef3e563019261068f9284920190610d00565b5060208281015180516106a89260018501920190610d00565b506040828101516002830180546001600160a01b0319166001600160a01b039092169190911790556060928301516003909201919091556000805433808352600160208181528585208054928301815585528085206000199490940193909101839055845194850182905242958501869052608080865289519086015288519296507f62347da9dbafbab1000b0204c6d22965f55a84e57a9e6c796b07d82a0af03651958995899593949193909283928382019260a08501928a0191908190849084905b8381101561078457818101518382015260200161076c565b50505050905090810190601f1680156107b15780820380516001836020036101000a031916815260200191505b50838103825286518152865160209182019188019080838360005b838110156107e45781810151838201526020016107cc565b50505050905090810190601f1680156108115780820380516001836020036101000a031916815260200191505b50965050505050505060405180910390a1505050565b6000545b90565b6000548110610879576040805162461bcd60e51b8152602060048201526012602482015271092dcecc2d8d2c840ccd2d8ca40d2dcc8caf60731b604482015290519081900360640190fd5b610881610ccf565b6000828154811061088e57fe5b600091825260209182902060408051600493909302909101805460026001821615610100026000190190911604601f8101859004909402830160a090810190925260808301848152929390928492909184918401828280156109315780601f1061090657610100808354040283529160200191610931565b820191906000526020600020905b81548152906001019060200180831161091457829003601f168201915b50505050508152602001600182018054600181600116156101000203166002900480601f0160208091040260200160405190810160405280929190818152602001828054600181600116156101000203166002900480156109d35780601f106109a8576101008083540402835291602001916109d3565b820191906000526020600020905b8154815290600101906020018083116109b657829003601f168201915b505050918352505060028201546001600160a01b039081166020830152600390920154604091820152820151919250163314610a405760405162461bcd60e51b815260040180806020018281038252602e815260200180610e03602e913960400191505060405180910390fd5b60008281548110610a4d57fe5b60009182526020822060049091020190610a678282610d7e565b610a75600183016000610d7e565b506002810180546001600160a01b031916905560006003909101819055338152600160205260408120905b8154811015610b2b5783828281548110610ab657fe5b90600052602060002001541415610b2357815482906000198101908110610ad957fe5b9060005260206000200154828281548110610af057fe5b906000526020600020018190555081805480610b0857fe5b60019003818190600052602060002001600090559055610b2b565b600101610aa0565b506040805184815233602082015281517fcdcbb3a920cc4c36693c3d8447ebc2db96012535cb6f993f23160fa685288e1e929181900390910190a1505050565b60008181548110610b7857fe5b60009182526020918290206004919091020180546040805160026001841615610100026000190190931692909204601f810185900485028301850190915280825291935091839190830182828015610c115780601f10610be657610100808354040283529160200191610c11565b820191906000526020600020905b815481529060010190602001808311610bf457829003601f168201915b505050505090806001018054600181600116156101000203166002900480601f016020809104026020016040519081016040528092919081815260200182805460018160011615610100020316600290048015610caf5780601f10610c8457610100808354040283529160200191610caf565b820191906000526020600020905b815481529060010190602001808311610c9257829003601f168201915b50505050600283015460039093015491926001600160a01b031691905084565b6040518060800160405280606081526020016060815260200160006001600160a01b03168152602001600081525090565b828054600181600116156101000203166002900490600052602060002090601f016020900481019282601f10610d4157805160ff1916838001178555610d6e565b82800160010185558215610d6e579182015b82811115610d6e578251825591602001919060010190610d53565b50610d7a929150610dc5565b5090565b50805460018160011615610100020316600290046000825580601f10610da45750610dc2565b601f016020900490600052602060002090810190610dc29190610dc5565b50565b61082b91905b80821115610d7a5760008155600101610dcb56fe596f7520646f206e6f7420686176652061636365737320746f20746869732066696c65596f7520646f206e6f742068617665207065726d697373696f6e20746f2064656c65746520746869732066696c65a265627a7a7231582084278293417633e2a8964babd120e7773329b82d1286c773f4f4398e9cea09fa64736f6c63430005100032",
  "source": "// SPDX-License-Identifier: MIT\r\npragma solidity >=0.4.22 <0.9.0;\r\n\r\ncontract FileStorage {\r\n    // Struct để lưu trữ thông tin file\r\n    struct File {\r\n        string fileHash; // CID của file từ IPFS\r\n        string fileName; // Tên file\r\n        address uploader; // Địa chỉ của người upload\r\n        uint timestamp; // Thời gian tạo file\r\n    }\r\n\r\n    // Danh sách lưu trữ các file\r\n    File[] public files;\r\n\r\n    // Mapping để theo dõi file index theo người dùng\r\n    mapping(address => uint[]) private userFiles;\r\n\r\n    // Sự kiện được phát ra khi có file mới được upload\r\n    event FileUploaded(string fileHash, string fileName, address uploader, uint timestamp);\r\n    event FileDeleted(uint index, address uploader);\r\n\r\n    // Hàm upload file\r\n    function uploadFile(string memory _fileHash, string memory _fileName) public {\r\n        files.push(File(_fileHash, _fileName, msg.sender, block.timestamp));\r\n        uint fileIndex = files.length - 1;\r\n        userFiles[msg.sender].push(fileIndex);\r\n\r\n        emit FileUploaded(_fileHash, _fileName, msg.sender, block.timestamp);\r\n    }\r\n\r\n    // Hàm lấy thông tin của một file dựa vào chỉ số (chỉ uploader mới được phép)\r\n    function getFile(uint _index) public view returns (string memory, string memory, address, uint) {\r\n        require(_index < files.length, \"Invalid file index\");\r\n        File memory file = files[_index];\r\n        require(file.uploader == msg.sender, \"You do not have access to this file\");\r\n        return (file.fileHash, file.fileName, file.uploader, file.timestamp);\r\n    }\r\n\r\n    // Hàm lấy danh sách chỉ số file của một người dùng\r\n    function getFileIndexesByUploader(address _uploader) public view returns (uint[] memory) {\r\n        return userFiles[_uploader];\r\n    }\r\n\r\n    // Hàm xóa file (chỉ uploader mới được phép)\r\n    function deleteFile(uint _index) public {\r\n        require(_index < files.length, \"Invalid file index\");\r\n        File memory file = files[_index];\r\n        require(file.uploader == msg.sender, \"You do not have permission to delete this file\");\r\n\r\n        // Đánh dấu file đã xóa bằng cách thay thế bằng dữ liệu trống\r\n        delete files[_index];\r\n\r\n        // Xóa file khỏi danh sách userFiles\r\n        uint[] storage indexes = userFiles[msg.sender];\r\n        for (uint i = 0; i < indexes.length; i++) {\r\n            if (indexes[i] == _index) {\r\n                indexes[i] = indexes[indexes.length - 1];\r\n                indexes.pop();\r\n                break;\r\n            }\r\n        }\r\n\r\n        emit FileDeleted(_index, msg.sender);\r\n    }\r\n\r\n    // Hàm lấy tổng số file đã được upload\r\n    function getFilesCount() public view returns (uint) {\r\n        return files.length;\r\n    }\r\n}\r\n",
  "sourcePath": "D:\\1.do an\\2.0. chuyennganh2\\blockchain_endterm\\backend\\contracts\\FileStorage.sol",
  "compiler": {
    "name": "solc",
    "version": "0.5.16+commit.9c3226ce.Emscripten.clang"
  },
  "schemaVersion": "3.4.16",
  "updatedAt": "2024-12-24T21:02:30.065Z",
  "networkType": "ethereum",
  "devdoc": {
    "methods": {}
  },
  "userdoc": {
    "methods": {}
  }
}